{
  "_format": "hh3-artifact-1",
  "contractName": "StakingV2",
  "sourceName": "contracts/StakingV2.sol",
  "abi": [
    {
      "inputs": [
        {
          "internalType": "address",
          "name": "_adtTokenAddress",
          "type": "address"
        },
        {
          "internalType": "address",
          "name": "initialOwner",
          "type": "address"
        }
      ],
      "stateMutability": "nonpayable",
      "type": "constructor"
    },
    {
      "inputs": [
        {
          "internalType": "address",
          "name": "owner",
          "type": "address"
        }
      ],
      "name": "OwnableInvalidOwner",
      "type": "error"
    },
    {
      "inputs": [
        {
          "internalType": "address",
          "name": "account",
          "type": "address"
        }
      ],
      "name": "OwnableUnauthorizedAccount",
      "type": "error"
    },
    {
      "anonymous": false,
      "inputs": [
        {
          "indexed": true,
          "internalType": "address",
          "name": "previousOwner",
          "type": "address"
        },
        {
          "indexed": true,
          "internalType": "address",
          "name": "newOwner",
          "type": "address"
        }
      ],
      "name": "OwnershipTransferred",
      "type": "event"
    },
    {
      "anonymous": false,
      "inputs": [
        {
          "indexed": true,
          "internalType": "address",
          "name": "owner",
          "type": "address"
        }
      ],
      "name": "Paused",
      "type": "event"
    },
    {
      "anonymous": false,
      "inputs": [
        {
          "indexed": true,
          "internalType": "address",
          "name": "referrer",
          "type": "address"
        },
        {
          "indexed": false,
          "internalType": "uint256",
          "name": "amount",
          "type": "uint256"
        }
      ],
      "name": "ReferralRewardsClaimed",
      "type": "event"
    },
    {
      "anonymous": false,
      "inputs": [
        {
          "indexed": true,
          "internalType": "address",
          "name": "owner",
          "type": "address"
        },
        {
          "indexed": false,
          "internalType": "uint256",
          "name": "amount",
          "type": "uint256"
        }
      ],
      "name": "RewardDeposited",
      "type": "event"
    },
    {
      "anonymous": false,
      "inputs": [
        {
          "indexed": true,
          "internalType": "address",
          "name": "user",
          "type": "address"
        },
        {
          "indexed": false,
          "internalType": "uint256",
          "name": "amount",
          "type": "uint256"
        }
      ],
      "name": "RewardsClaimed",
      "type": "event"
    },
    {
      "anonymous": false,
      "inputs": [
        {
          "indexed": true,
          "internalType": "address",
          "name": "user",
          "type": "address"
        },
        {
          "indexed": false,
          "internalType": "uint256",
          "name": "amount",
          "type": "uint256"
        },
        {
          "indexed": true,
          "internalType": "address",
          "name": "referrer",
          "type": "address"
        }
      ],
      "name": "Staked",
      "type": "event"
    },
    {
      "anonymous": false,
      "inputs": [
        {
          "indexed": true,
          "internalType": "address",
          "name": "owner",
          "type": "address"
        }
      ],
      "name": "Unpaused",
      "type": "event"
    },
    {
      "anonymous": false,
      "inputs": [
        {
          "indexed": true,
          "internalType": "address",
          "name": "user",
          "type": "address"
        },
        {
          "indexed": false,
          "internalType": "uint256",
          "name": "amount",
          "type": "uint256"
        }
      ],
      "name": "Unstaked",
      "type": "event"
    },
    {
      "inputs": [],
      "name": "REFERRAL_PERCENTAGE",
      "outputs": [
        {
          "internalType": "uint256",
          "name": "",
          "type": "uint256"
        }
      ],
      "stateMutability": "view",
      "type": "function"
    },
    {
      "inputs": [],
      "name": "REWARD_RATE_PER_SECOND",
      "outputs": [
        {
          "internalType": "uint256",
          "name": "",
          "type": "uint256"
        }
      ],
      "stateMutability": "view",
      "type": "function"
    },
    {
      "inputs": [],
      "name": "adtToken",
      "outputs": [
        {
          "internalType": "contract IERC20",
          "name": "",
          "type": "address"
        }
      ],
      "stateMutability": "view",
      "type": "function"
    },
    {
      "inputs": [],
      "name": "claimReferralRewards",
      "outputs": [],
      "stateMutability": "nonpayable",
      "type": "function"
    },
    {
      "inputs": [],
      "name": "claimReward",
      "outputs": [],
      "stateMutability": "nonpayable",
      "type": "function"
    },
    {
      "inputs": [
        {
          "internalType": "uint256",
          "name": "_amount",
          "type": "uint256"
        }
      ],
      "name": "depositRewardTokens",
      "outputs": [],
      "stateMutability": "nonpayable",
      "type": "function"
    },
    {
      "inputs": [
        {
          "internalType": "address",
          "name": "_user",
          "type": "address"
        }
      ],
      "name": "getEarnedRewards",
      "outputs": [
        {
          "internalType": "uint256",
          "name": "",
          "type": "uint256"
        }
      ],
      "stateMutability": "view",
      "type": "function"
    },
    {
      "inputs": [
        {
          "internalType": "address",
          "name": "",
          "type": "address"
        }
      ],
      "name": "lastRewardClaimTime",
      "outputs": [
        {
          "internalType": "uint256",
          "name": "",
          "type": "uint256"
        }
      ],
      "stateMutability": "view",
      "type": "function"
    },
    {
      "inputs": [],
      "name": "owner",
      "outputs": [
        {
          "internalType": "address",
          "name": "",
          "type": "address"
        }
      ],
      "stateMutability": "view",
      "type": "function"
    },
    {
      "inputs": [],
      "name": "pause",
      "outputs": [],
      "stateMutability": "nonpayable",
      "type": "function"
    },
    {
      "inputs": [],
      "name": "paused",
      "outputs": [
        {
          "internalType": "bool",
          "name": "",
          "type": "bool"
        }
      ],
      "stateMutability": "view",
      "type": "function"
    },
    {
      "inputs": [
        {
          "internalType": "address",
          "name": "",
          "type": "address"
        }
      ],
      "name": "referralRewards",
      "outputs": [
        {
          "internalType": "uint256",
          "name": "",
          "type": "uint256"
        }
      ],
      "stateMutability": "view",
      "type": "function"
    },
    {
      "inputs": [],
      "name": "renounceOwnership",
      "outputs": [],
      "stateMutability": "nonpayable",
      "type": "function"
    },
    {
      "inputs": [
        {
          "internalType": "address",
          "name": "",
          "type": "address"
        }
      ],
      "name": "rewards",
      "outputs": [
        {
          "internalType": "uint256",
          "name": "",
          "type": "uint256"
        }
      ],
      "stateMutability": "view",
      "type": "function"
    },
    {
      "inputs": [
        {
          "internalType": "uint256",
          "name": "_amount",
          "type": "uint256"
        },
        {
          "internalType": "address",
          "name": "_referrer",
          "type": "address"
        }
      ],
      "name": "stake",
      "outputs": [],
      "stateMutability": "nonpayable",
      "type": "function"
    },
    {
      "inputs": [
        {
          "internalType": "address",
          "name": "",
          "type": "address"
        }
      ],
      "name": "stakes",
      "outputs": [
        {
          "internalType": "uint256",
          "name": "amount",
          "type": "uint256"
        },
        {
          "internalType": "uint256",
          "name": "startTime",
          "type": "uint256"
        },
        {
          "internalType": "address",
          "name": "referrer",
          "type": "address"
        }
      ],
      "stateMutability": "view",
      "type": "function"
    },
    {
      "inputs": [
        {
          "internalType": "address",
          "name": "newOwner",
          "type": "address"
        }
      ],
      "name": "transferOwnership",
      "outputs": [],
      "stateMutability": "nonpayable",
      "type": "function"
    },
    {
      "inputs": [],
      "name": "unpause",
      "outputs": [],
      "stateMutability": "nonpayable",
      "type": "function"
    },
    {
      "inputs": [
        {
          "internalType": "uint256",
          "name": "_amount",
          "type": "uint256"
        }
      ],
      "name": "unstake",
      "outputs": [],
      "stateMutability": "nonpayable",
      "type": "function"
    }
  ],
  "bytecode": "0x60a060405234801561000f575f5ffd5b5060405161118a38038061118a83398101604081905261002e916100ec565b806001600160a01b03811661005c57604051631e4fbdf760e01b81525f600482015260240160405180910390fd5b61006581610082565b50506001600160a01b03166080526005805460ff1916905561011d565b5f80546001600160a01b038381166001600160a01b0319831681178455604051919092169283917f8be0079c531659141344cd1fd0a4f28419497f9722a3daafe3b4186f6b6457e09190a35050565b80516001600160a01b03811681146100e7575f5ffd5b919050565b5f5f604083850312156100fd575f5ffd5b610106836100d1565b9150610114602084016100d1565b90509250929050565b6080516110326101585f395f81816102410152818161038d0152818161047a01528181610607015281816109140152610bc201526110325ff3fe608060405234801561000f575f5ffd5b506004361061011c575f3560e01c80635c975abb116100a95780638456cb591161006e5780638456cb59146102b55780638da5cb5b146102bd578063b88a802f146102cd578063da534353146102d5578063f2fde38b146102e0575f5ffd5b80635c975abb1461021f5780636814795f1461023c5780636c430dbb1461027b578063715018a61461029a5780637acb7757146102a2575f5ffd5b806316c621e0116100ef57806316c621e0146101bf5780632e17de78146101d25780633f4ba83a146101e55780634612bd4f146101ed57806353aaa63b14610200575f5ffd5b806305eaab4b146101205780630700037d1461012a5780630c2e05e01461015c57806316934fc414610165575b5f5ffd5b6101286102f3565b005b610149610138366004610ea4565b60026020525f908152604090205481565b6040519081526020015b60405180910390f35b6101496101f481565b61019b610173366004610ea4565b600160208190525f91825260409091208054918101546002909101546001600160a01b031683565b6040805193845260208401929092526001600160a01b031690820152606001610153565b6101286101cd366004610ec4565b610431565b6101286101e0366004610ec4565b61051f565b6101286106ea565b6101496101fb366004610ea4565b610772565b61014961020e366004610ea4565b60046020525f908152604090205481565b60055461022c9060ff1681565b6040519015158152602001610153565b6102637f000000000000000000000000000000000000000000000000000000000000000081565b6040516001600160a01b039091168152602001610153565b610149610289366004610ea4565b60036020525f908152604090205481565b610128610830565b6101286102b0366004610edb565b610843565b610128610a6c565b5f546001600160a01b0316610263565b610128610b00565b61014963bd014d7e81565b6101286102ee366004610ea4565b610c5f565b335f90815260046020526040902054806103545760405162461bcd60e51b815260206004820152601c60248201527f4e6f20726566657272616c207265776172647320746f20636c61696d0000000060448201526064015b60405180910390fd5b335f81815260046020819052604080832092909255905163a9059cbb60e01b815290810191909152602481018290526001600160a01b037f0000000000000000000000000000000000000000000000000000000000000000169063a9059cbb906044016020604051808303815f875af11580156103d3573d5f5f3e3d5ffd5b505050506040513d601f19601f820116820180604052508101906103f79190610f05565b5060405181815233907f98741ecf35c5d20a8ed68dbd8540500684864a6c98c2a41a5844d0b3a2357d43906020015b60405180910390a250565b610439610c9c565b5f81116104585760405162461bcd60e51b815260040161034b90610f24565b6040516323b872dd60e01b8152336004820152306024820152604481018290527f00000000000000000000000000000000000000000000000000000000000000006001600160a01b0316906323b872dd906064016020604051808303815f875af11580156104c8573d5f5f3e3d5ffd5b505050506040513d601f19601f820116820180604052508101906104ec9190610f05565b5060405181815233907f7dbc080e4530c8bcf265eb5c9a35ae096ca1eb607b7e802b96581ef4c5e1a70390602001610426565b60055460ff16156105425760405162461bcd60e51b815260040161034b90610f5b565b5f81116105615760405162461bcd60e51b815260040161034b90610f24565b335f908152600160205260409020548111156105bf5760405162461bcd60e51b815260206004820152601a60248201527f496e73756666696369656e74207374616b656420616d6f756e74000000000000604482015260640161034b565b6105c833610cc8565b335f90815260016020526040812080548392906105e6908490610f9a565b909155505060405163a9059cbb60e01b8152336004820152602481018290527f00000000000000000000000000000000000000000000000000000000000000006001600160a01b03169063a9059cbb906044016020604051808303815f875af1158015610655573d5f5f3e3d5ffd5b505050506040513d601f19601f820116820180604052508101906106799190610f05565b50335f9081526001602052604081205490036106b857335f90815260016020819052604082209081019190915560020180546001600160a01b03191690555b60405181815233907f0f5bb82176feb1b5e747e28471aa92156a04d9f3ab9f45f28e2d704232b93f7590602001610426565b6106f2610c9c565b60055460ff1661073c5760405162461bcd60e51b815260206004820152601560248201527414dd185ada5b99c81a5cc81b9bdd081c185d5cd959605a1b604482015260640161034b565b6005805460ff1916905560405133907f5db9ee0a495bf2e6ff9c91a7834c1ba4fdd244a5e8aa4e537bd38aeae4b073aa905f90a2565b6001600160a01b0381165f908152600160205260408120548082036107ad5750506001600160a01b03165f9081526002602052604090205490565b6001600160a01b0383165f908152600160208190526040822001546107d29042610f9a565b90505f670de0b6b3a7640000826107ed63bd014d7e86610fb3565b6107f79190610fb3565b6108019190610fca565b6001600160a01b0386165f90815260026020526040902054909150610827908290610fe9565b95945050505050565b610838610c9c565b6108415f610e3a565b565b60055460ff16156108665760405162461bcd60e51b815260040161034b90610f5b565b5f82116108855760405162461bcd60e51b815260040161034b90610f24565b336001600160a01b038216036108d55760405162461bcd60e51b815260206004820152601560248201527421b0b73737ba103932b332b9103cb7bab939b2b63360591b604482015260640161034b565b335f90815260016020526040902054156108f2576108f233610cc8565b6040516323b872dd60e01b8152336004820152306024820152604481018390527f00000000000000000000000000000000000000000000000000000000000000006001600160a01b0316906323b872dd906064016020604051808303815f875af1158015610962573d5f5f3e3d5ffd5b505050506040513d601f19601f820116820180604052508101906109869190610f05565b50335f90815260016020526040812080548492906109a5908490610fe9565b9091555050335f9081526001602081905260409091204291810191909155600201546001600160a01b03161580156109e557506001600160a01b03811615155b15610a1557335f90815260016020526040902060020180546001600160a01b0319166001600160a01b0383161790555b335f818152600160209081526040918290206002015491518581526001600160a01b0390921692917f9f9e4044c5742cca66ca090b21552bac14645e68bad7a92364a9d9ff18111a1c910160405180910390a35050565b610a74610c9c565b60055460ff1615610ac75760405162461bcd60e51b815260206004820152601960248201527f5374616b696e6720697320616c72656164792070617573656400000000000000604482015260640161034b565b6005805460ff1916600117905560405133907f62e78cea01bee320cd4e420270b5ea74000d11b0c9f74754ebdbfc544b05a258905f90a2565b60055460ff1615610b235760405162461bcd60e51b815260040161034b90610f5b565b610b2c33610cc8565b335f9081526002602052604090205480610b7e5760405162461bcd60e51b81526020600482015260136024820152724e6f207265776172647320746f20636c61696d60681b604482015260640161034b565b335f8181526002602090815260408083208390556003909152908190204290555163a9059cbb60e01b81526004810191909152602481018290526001600160a01b037f0000000000000000000000000000000000000000000000000000000000000000169063a9059cbb906044016020604051808303815f875af1158015610c08573d5f5f3e3d5ffd5b505050506040513d601f19601f82011682018060405250810190610c2c9190610f05565b5060405181815233907ffc30cddea38e2bf4d6ea7d3f9ed3b6ad7f176419f4963bd81318067a4aee73fe90602001610426565b610c67610c9c565b6001600160a01b038116610c9057604051631e4fbdf760e01b81525f600482015260240161034b565b610c9981610e3a565b50565b5f546001600160a01b031633146108415760405163118cdaa760e01b815233600482015260240161034b565b6001600160a01b0381165f908152600160205260409020548015610e36576001600160a01b0382165f90815260016020819052604082200154610d0b9042610f9a565b90505f670de0b6b3a764000082610d2663bd014d7e86610fb3565b610d309190610fb3565b610d3a9190610fca565b6001600160a01b0385165f90815260026020526040812080549293508392909190610d66908490610fe9565b90915550506001600160a01b038085165f90815260016020526040902060020154168015801590610d9657505f82115b15610e14575f612710610dab6101f485610fb3565b610db59190610fca565b6001600160a01b0383165f90815260046020526040812080549293508392909190610de1908490610fe9565b90915550506001600160a01b0386165f9081526002602052604081208054839290610e0d908490610f9a565b9091555050505b5050506001600160a01b0382165f908152600160208190526040909120429101555b5050565b5f80546001600160a01b038381166001600160a01b0319831681178455604051919092169283917f8be0079c531659141344cd1fd0a4f28419497f9722a3daafe3b4186f6b6457e09190a35050565b80356001600160a01b0381168114610e9f575f5ffd5b919050565b5f60208284031215610eb4575f5ffd5b610ebd82610e89565b9392505050565b5f60208284031215610ed4575f5ffd5b5035919050565b5f5f60408385031215610eec575f5ffd5b82359150610efc60208401610e89565b90509250929050565b5f60208284031215610f15575f5ffd5b81518015158114610ebd575f5ffd5b6020808252601d908201527f416d6f756e74206d7573742062652067726561746572207468616e2030000000604082015260600190565b60208082526011908201527014dd185ada5b99c81a5cc81c185d5cd959607a1b604082015260600190565b634e487b7160e01b5f52601160045260245ffd5b81810381811115610fad57610fad610f86565b92915050565b8082028115828204841417610fad57610fad610f86565b5f82610fe457634e487b7160e01b5f52601260045260245ffd5b500490565b80820180821115610fad57610fad610f8656fea26469706673582212206318923aa2aa23a7eea684e111a28eb978e55d297bafa9a2401147860a47840864736f6c634300081c0033",
  "linkReferences": {},
  "deployedLinkReferences": {},
  "immutableReferences": {
    "264": [
      {
        "length": 32,
        "start": 577
      },
      {
        "length": 32,
        "start": 909
      },
      {
        "length": 32,
        "start": 1146
      },
      {
        "length": 32,
        "start": 1543
      },
      {
        "length": 32,
        "start": 2324
      },
      {
        "length": 32,
        "start": 3010
      }
    ]
  },
  "inputSourceName": "project/contracts/StakingV2.sol",
  "buildInfoId": "solc-0_8_28-4ae3492456cd473835547dda6c608b36b0b0fb0e"
}