{
  "_format": "hh3-artifact-1",
  "contractName": "Staking",
  "sourceName": "contracts/Staking.sol",
  "abi": [
    {
      "inputs": [
        {
          "internalType": "address",
          "name": "_adtTokenAddress",
          "type": "address"
        },
        {
          "internalType": "address",
          "name": "initialOwner",
          "type": "address"
        }
      ],
      "stateMutability": "nonpayable",
      "type": "constructor"
    },
    {
      "inputs": [
        {
          "internalType": "address",
          "name": "owner",
          "type": "address"
        }
      ],
      "name": "OwnableInvalidOwner",
      "type": "error"
    },
    {
      "inputs": [
        {
          "internalType": "address",
          "name": "account",
          "type": "address"
        }
      ],
      "name": "OwnableUnauthorizedAccount",
      "type": "error"
    },
    {
      "anonymous": false,
      "inputs": [
        {
          "indexed": true,
          "internalType": "address",
          "name": "previousOwner",
          "type": "address"
        },
        {
          "indexed": true,
          "internalType": "address",
          "name": "newOwner",
          "type": "address"
        }
      ],
      "name": "OwnershipTransferred",
      "type": "event"
    },
    {
      "anonymous": false,
      "inputs": [
        {
          "indexed": true,
          "internalType": "address",
          "name": "owner",
          "type": "address"
        }
      ],
      "name": "Paused",
      "type": "event"
    },
    {
      "anonymous": false,
      "inputs": [
        {
          "indexed": true,
          "internalType": "address",
          "name": "owner",
          "type": "address"
        },
        {
          "indexed": false,
          "internalType": "uint256",
          "name": "amount",
          "type": "uint256"
        }
      ],
      "name": "RewardDeposited",
      "type": "event"
    },
    {
      "anonymous": false,
      "inputs": [
        {
          "indexed": true,
          "internalType": "address",
          "name": "user",
          "type": "address"
        },
        {
          "indexed": false,
          "internalType": "uint256",
          "name": "amount",
          "type": "uint256"
        }
      ],
      "name": "RewardsClaimed",
      "type": "event"
    },
    {
      "anonymous": false,
      "inputs": [
        {
          "indexed": true,
          "internalType": "address",
          "name": "user",
          "type": "address"
        },
        {
          "indexed": false,
          "internalType": "uint256",
          "name": "amount",
          "type": "uint256"
        }
      ],
      "name": "Staked",
      "type": "event"
    },
    {
      "anonymous": false,
      "inputs": [
        {
          "indexed": true,
          "internalType": "address",
          "name": "owner",
          "type": "address"
        }
      ],
      "name": "Unpaused",
      "type": "event"
    },
    {
      "anonymous": false,
      "inputs": [
        {
          "indexed": true,
          "internalType": "address",
          "name": "user",
          "type": "address"
        },
        {
          "indexed": false,
          "internalType": "uint256",
          "name": "amount",
          "type": "uint256"
        }
      ],
      "name": "Unstaked",
      "type": "event"
    },
    {
      "inputs": [],
      "name": "REWARD_RATE_PER_SECOND",
      "outputs": [
        {
          "internalType": "uint256",
          "name": "",
          "type": "uint256"
        }
      ],
      "stateMutability": "view",
      "type": "function"
    },
    {
      "inputs": [],
      "name": "adtToken",
      "outputs": [
        {
          "internalType": "contract IERC20",
          "name": "",
          "type": "address"
        }
      ],
      "stateMutability": "view",
      "type": "function"
    },
    {
      "inputs": [],
      "name": "claimReward",
      "outputs": [],
      "stateMutability": "nonpayable",
      "type": "function"
    },
    {
      "inputs": [
        {
          "internalType": "uint256",
          "name": "_amount",
          "type": "uint256"
        }
      ],
      "name": "depositRewardTokens",
      "outputs": [],
      "stateMutability": "nonpayable",
      "type": "function"
    },
    {
      "inputs": [
        {
          "internalType": "address",
          "name": "_user",
          "type": "address"
        }
      ],
      "name": "getEarnedRewards",
      "outputs": [
        {
          "internalType": "uint256",
          "name": "",
          "type": "uint256"
        }
      ],
      "stateMutability": "view",
      "type": "function"
    },
    {
      "inputs": [
        {
          "internalType": "address",
          "name": "",
          "type": "address"
        }
      ],
      "name": "lastRewardClaimTime",
      "outputs": [
        {
          "internalType": "uint256",
          "name": "",
          "type": "uint256"
        }
      ],
      "stateMutability": "view",
      "type": "function"
    },
    {
      "inputs": [],
      "name": "owner",
      "outputs": [
        {
          "internalType": "address",
          "name": "",
          "type": "address"
        }
      ],
      "stateMutability": "view",
      "type": "function"
    },
    {
      "inputs": [],
      "name": "pause",
      "outputs": [],
      "stateMutability": "nonpayable",
      "type": "function"
    },
    {
      "inputs": [],
      "name": "paused",
      "outputs": [
        {
          "internalType": "bool",
          "name": "",
          "type": "bool"
        }
      ],
      "stateMutability": "view",
      "type": "function"
    },
    {
      "inputs": [],
      "name": "renounceOwnership",
      "outputs": [],
      "stateMutability": "nonpayable",
      "type": "function"
    },
    {
      "inputs": [
        {
          "internalType": "address",
          "name": "",
          "type": "address"
        }
      ],
      "name": "rewards",
      "outputs": [
        {
          "internalType": "uint256",
          "name": "",
          "type": "uint256"
        }
      ],
      "stateMutability": "view",
      "type": "function"
    },
    {
      "inputs": [
        {
          "internalType": "uint256",
          "name": "_amount",
          "type": "uint256"
        }
      ],
      "name": "stake",
      "outputs": [],
      "stateMutability": "nonpayable",
      "type": "function"
    },
    {
      "inputs": [
        {
          "internalType": "address",
          "name": "",
          "type": "address"
        }
      ],
      "name": "stakes",
      "outputs": [
        {
          "internalType": "uint256",
          "name": "amount",
          "type": "uint256"
        },
        {
          "internalType": "uint256",
          "name": "startTime",
          "type": "uint256"
        }
      ],
      "stateMutability": "view",
      "type": "function"
    },
    {
      "inputs": [
        {
          "internalType": "address",
          "name": "newOwner",
          "type": "address"
        }
      ],
      "name": "transferOwnership",
      "outputs": [],
      "stateMutability": "nonpayable",
      "type": "function"
    },
    {
      "inputs": [],
      "name": "unpause",
      "outputs": [],
      "stateMutability": "nonpayable",
      "type": "function"
    },
    {
      "inputs": [
        {
          "internalType": "uint256",
          "name": "_amount",
          "type": "uint256"
        }
      ],
      "name": "unstake",
      "outputs": [],
      "stateMutability": "nonpayable",
      "type": "function"
    }
  ],
  "bytecode": "0x60a060405234801561000f575f5ffd5b50604051610e3b380380610e3b83398101604081905261002e916100ec565b806001600160a01b03811661005c57604051631e4fbdf760e01b81525f600482015260240160405180910390fd5b61006581610082565b50506001600160a01b03166080526004805460ff1916905561011d565b5f80546001600160a01b038381166001600160a01b0319831681178455604051919092169283917f8be0079c531659141344cd1fd0a4f28419497f9722a3daafe3b4186f6b6457e09190a35050565b80516001600160a01b03811681146100e7575f5ffd5b919050565b5f5f604083850312156100fd575f5ffd5b610106836100d1565b9150610114602084016100d1565b90509250929050565b608051610cea6101515f395f81816101d1015281816102d501528181610469015281816107be015261095c0152610cea5ff3fe608060405234801561000f575f5ffd5b50600436106100fb575f3560e01c80636c430dbb11610093578063a694fc3a11610063578063a694fc3a1461024a578063b88a802f1461025d578063da53435314610265578063f2fde38b14610270575f5ffd5b80636c430dbb1461020b578063715018a61461022a5780638456cb59146102325780638da5cb5b1461023a575f5ffd5b80633f4ba83a116100ce5780633f4ba83a146101945780634612bd4f1461019c5780635c975abb146101af5780636814795f146101cc575f5ffd5b80630700037d146100ff57806316934fc41461013157806316c621e01461016c5780632e17de7814610181575b5f5ffd5b61011e61010d366004610b79565b60026020525f908152604090205481565b6040519081526020015b60405180910390f35b61015761013f366004610b79565b600160208190525f9182526040909120805491015482565b60408051928352602083019190915201610128565b61017f61017a366004610ba6565b610283565b005b61017f61018f366004610ba6565b610381565b61017f610550565b61011e6101aa366004610b79565b6105d8565b6004546101bc9060ff1681565b6040519015158152602001610128565b6101f37f000000000000000000000000000000000000000000000000000000000000000081565b6040516001600160a01b039091168152602001610128565b61011e610219366004610b79565b60036020525f908152604090205481565b61017f610696565b61017f6106a9565b5f546001600160a01b03166101f3565b61017f610258366004610ba6565b61073d565b61017f61089a565b61011e63bd014d7e81565b61017f61027e366004610b79565b6109f9565b61028b610a36565b5f81116102b35760405162461bcd60e51b81526004016102aa90610bbd565b60405180910390fd5b6040516323b872dd60e01b8152336004820152306024820152604481018290527f00000000000000000000000000000000000000000000000000000000000000006001600160a01b0316906323b872dd906064016020604051808303815f875af1158015610323573d5f5f3e3d5ffd5b505050506040513d601f19601f820116820180604052508101906103479190610bf4565b5060405181815233907f7dbc080e4530c8bcf265eb5c9a35ae096ca1eb607b7e802b96581ef4c5e1a703906020015b60405180910390a250565b60045460ff16156103a45760405162461bcd60e51b81526004016102aa90610c13565b5f81116103c35760405162461bcd60e51b81526004016102aa90610bbd565b335f908152600160205260409020548111156104215760405162461bcd60e51b815260206004820152601a60248201527f496e73756666696369656e74207374616b656420616d6f756e7400000000000060448201526064016102aa565b61042a33610a62565b335f9081526001602052604081208054839290610448908490610c52565b909155505060405163a9059cbb60e01b8152336004820152602481018290527f00000000000000000000000000000000000000000000000000000000000000006001600160a01b03169063a9059cbb906044016020604051808303815f875af11580156104b7573d5f5f3e3d5ffd5b505050506040513d601f19601f820116820180604052508101906104db9190610bf4565b50335f90815260016020526040812054900361050857335f9081526001602081905260408220015561051e565b335f908152600160208190526040909120429101555b60405181815233907f0f5bb82176feb1b5e747e28471aa92156a04d9f3ab9f45f28e2d704232b93f7590602001610376565b610558610a36565b60045460ff166105a25760405162461bcd60e51b815260206004820152601560248201527414dd185ada5b99c81a5cc81b9bdd081c185d5cd959605a1b60448201526064016102aa565b6004805460ff1916905560405133907f5db9ee0a495bf2e6ff9c91a7834c1ba4fdd244a5e8aa4e537bd38aeae4b073aa905f90a2565b6001600160a01b0381165f908152600160205260408120548082036106135750506001600160a01b03165f9081526002602052604090205490565b6001600160a01b0383165f908152600160208190526040822001546106389042610c52565b90505f670de0b6b3a76400008261065363bd014d7e86610c6b565b61065d9190610c6b565b6106679190610c82565b6001600160a01b0386165f9081526002602052604090205490915061068d908290610ca1565b95945050505050565b61069e610a36565b6106a75f610b2a565b565b6106b1610a36565b60045460ff16156107045760405162461bcd60e51b815260206004820152601960248201527f5374616b696e6720697320616c7265616479207061757365640000000000000060448201526064016102aa565b6004805460ff1916600117905560405133907f62e78cea01bee320cd4e420270b5ea74000d11b0c9f74754ebdbfc544b05a258905f90a2565b60045460ff16156107605760405162461bcd60e51b81526004016102aa90610c13565b5f811161077f5760405162461bcd60e51b81526004016102aa90610bbd565b335f908152600160205260409020541561079c5761079c33610a62565b6040516323b872dd60e01b8152336004820152306024820152604481018290527f00000000000000000000000000000000000000000000000000000000000000006001600160a01b0316906323b872dd906064016020604051808303815f875af115801561080c573d5f5f3e3d5ffd5b505050506040513d601f19601f820116820180604052508101906108309190610bf4565b50335f908152600160205260408120805483929061084f908490610ca1565b9091555050335f8181526001602081905260409182902042910155517f9e71bc8eea02a63969f509818f2dafb9254532904319f9dbda79b67bd34a5f3d906103769084815260200190565b60045460ff16156108bd5760405162461bcd60e51b81526004016102aa90610c13565b6108c633610a62565b335f90815260026020526040902054806109185760405162461bcd60e51b81526020600482015260136024820152724e6f207265776172647320746f20636c61696d60681b60448201526064016102aa565b335f8181526002602090815260408083208390556003909152908190204290555163a9059cbb60e01b81526004810191909152602481018290526001600160a01b037f0000000000000000000000000000000000000000000000000000000000000000169063a9059cbb906044016020604051808303815f875af11580156109a2573d5f5f3e3d5ffd5b505050506040513d601f19601f820116820180604052508101906109c69190610bf4565b5060405181815233907ffc30cddea38e2bf4d6ea7d3f9ed3b6ad7f176419f4963bd81318067a4aee73fe90602001610376565b610a01610a36565b6001600160a01b038116610a2a57604051631e4fbdf760e01b81525f60048201526024016102aa565b610a3381610b2a565b50565b5f546001600160a01b031633146106a75760405163118cdaa760e01b81523360048201526024016102aa565b6001600160a01b0381165f908152600160205260409020548015610b26576001600160a01b0382165f90815260016020819052604082200154610aa59042610c52565b90505f670de0b6b3a764000082610ac063bd014d7e86610c6b565b610aca9190610c6b565b610ad49190610c82565b6001600160a01b0385165f90815260026020526040812080549293508392909190610b00908490610ca1565b9091555050506001600160a01b0383165f90815260016020819052604090912042910155505b5050565b5f80546001600160a01b038381166001600160a01b0319831681178455604051919092169283917f8be0079c531659141344cd1fd0a4f28419497f9722a3daafe3b4186f6b6457e09190a35050565b5f60208284031215610b89575f5ffd5b81356001600160a01b0381168114610b9f575f5ffd5b9392505050565b5f60208284031215610bb6575f5ffd5b5035919050565b6020808252601d908201527f416d6f756e74206d7573742062652067726561746572207468616e2030000000604082015260600190565b5f60208284031215610c04575f5ffd5b81518015158114610b9f575f5ffd5b60208082526011908201527014dd185ada5b99c81a5cc81c185d5cd959607a1b604082015260600190565b634e487b7160e01b5f52601160045260245ffd5b81810381811115610c6557610c65610c3e565b92915050565b8082028115828204841417610c6557610c65610c3e565b5f82610c9c57634e487b7160e01b5f52601260045260245ffd5b500490565b80820180821115610c6557610c65610c3e56fea2646970667358221220d87d80551291ef2da3a750823756dc19db2fa38166b31fee95d276a151d8cbd264736f6c634300081c0033",
  "linkReferences": {},
  "deployedLinkReferences": {},
  "immutableReferences": {
    "264": [
      {
        "length": 32,
        "start": 465
      },
      {
        "length": 32,
        "start": 725
      },
      {
        "length": 32,
        "start": 1129
      },
      {
        "length": 32,
        "start": 1982
      },
      {
        "length": 32,
        "start": 2396
      }
    ]
  },
  "inputSourceName": "project/contracts/Staking.sol",
  "buildInfoId": "solc-0_8_28-9c85c486967a3289aad3971d72e6d5fc69595913"
}